{
  "contractName": "MemoryStorage",
  "abi": [
    {
      "constant": false,
      "inputs": [
        {
          "internalType": "string",
          "name": "_walletID",
          "type": "string"
        }
      ],
      "name": "setUser",
      "outputs": [],
      "payable": false,
      "stateMutability": "nonpayable",
      "type": "function"
    },
    {
      "constant": true,
      "inputs": [
        {
          "internalType": "string",
          "name": "_walletID",
          "type": "string"
        }
      ],
      "name": "hasUser",
      "outputs": [
        {
          "internalType": "bool",
          "name": "",
          "type": "bool"
        }
      ],
      "payable": false,
      "stateMutability": "view",
      "type": "function"
    },
    {
      "constant": false,
      "inputs": [
        {
          "internalType": "string",
          "name": "_walletID",
          "type": "string"
        },
        {
          "internalType": "uint256",
          "name": "memoryIndex",
          "type": "uint256"
        },
        {
          "internalType": "int256",
          "name": "_status",
          "type": "int256"
        }
      ],
      "name": "changeMemoryStatus",
      "outputs": [],
      "payable": false,
      "stateMutability": "nonpayable",
      "type": "function"
    },
    {
      "constant": false,
      "inputs": [
        {
          "internalType": "string",
          "name": "_walletID",
          "type": "string"
        },
        {
          "internalType": "string",
          "name": "_memory",
          "type": "string"
        }
      ],
      "name": "addMemory",
      "outputs": [],
      "payable": false,
      "stateMutability": "nonpayable",
      "type": "function"
    },
    {
      "constant": true,
      "inputs": [
        {
          "internalType": "string",
          "name": "_walletID",
          "type": "string"
        }
      ],
      "name": "getMemoryList",
      "outputs": [
        {
          "components": [
            {
              "internalType": "uint256",
              "name": "ID",
              "type": "uint256"
            },
            {
              "internalType": "string",
              "name": "text",
              "type": "string"
            },
            {
              "internalType": "int256",
              "name": "status",
              "type": "int256"
            }
          ],
          "internalType": "struct MemoryStorage.MemoryData[]",
          "name": "",
          "type": "tuple[]"
        }
      ],
      "payable": false,
      "stateMutability": "view",
      "type": "function"
    }
  ],
  "bytecode": "0x608060405234801561001057600080fd5b50610f34806100206000396000f3fe608060405234801561001057600080fd5b50600436106100575760003560e01c8063459c59081461005c5780634a50a5521461008c578063aff40616146100a8578063b50c3853146100c4578063d0020fad146100f4575b600080fd5b61007660048036036100719190810190610ab4565b610110565b6040516100839190610d4f565b60405180910390f35b6100a660048036036100a19190810190610b61565b6103ab565b005b6100c260048036036100bd9190810190610af5565b6103f7565b005b6100de60048036036100d99190810190610ab4565b6104af565b6040516100eb9190610d71565b60405180910390f35b61010e60048036036101099190810190610ab4565b6105a3565b005b606061011a6108cf565b60008360405161012a9190610d38565b9081526020016040518091039020604051806060016040529081600082018054600181600116156101000203166002900480601f0160208091040260200160405190810160405280929190818152602001828054600181600116156101000203166002900480156101dc5780601f106101b1576101008083540402835291602001916101dc565b820191906000526020600020905b8154815290600101906020018083116101bf57829003601f168201915b50505050508152602001600182018054600181600116156101000203166002900480601f01602080910402602001604051908101604052809291908181526020018280546001816001161561010002031660029004801561027e5780601f106102535761010080835404028352916020019161027e565b820191906000526020600020905b81548152906001019060200180831161026157829003601f168201915b5050505050815260200160028201805480602002602001604051908101604052809291908181526020016000905b82821015610394578382906000526020600020906003020160405180606001604052908160008201548152602001600182018054600181600116156101000203166002900480601f0160208091040260200160405190810160405280929190818152602001828054600181600116156101000203166002900480156103725780601f1061034757610100808354040283529160200191610372565b820191906000526020600020905b81548152906001019060200180831161035557829003601f168201915b50505050508152602001600282015481525050815260200190600101906102ac565b505050508152505090508060400151915050919050565b600080846040516103bc9190610d38565b90815260200160405180910390209050818160020184815481106103dc57fe5b90600052602060002090600302016002018190555050505050565b600080836040516104089190610d38565b908152602001604051809103902090506104206108f0565b6040518060600160405280836002018054905081526020018481526020016000815250905081600201819080600181540180825580915050906001820390600052602060002090600302016000909192909190915060008201518160000155602082015181600101908051906020019061049b929190610911565b506040820151816002015550505050505050565b600061059c6001805480602002602001604051908101604052809291908181526020016000905b82821015610592578382906000526020600020018054600181600116156101000203166002900480601f01602080910402602001604051908101604052809291908181526020018280546001816001161561010002031660029004801561057e5780601f106105535761010080835404028352916020019161057e565b820191906000526020600020905b81548152906001019060200180831161056157829003601f168201915b5050505050815260200190600101906104d6565b5050505083610872565b9050919050565b6105ab6108cf565b6000826040516105bb9190610d38565b9081526020016040518091039020604051806060016040529081600082018054600181600116156101000203166002900480601f01602080910402602001604051908101604052809291908181526020018280546001816001161561010002031660029004801561066d5780601f106106425761010080835404028352916020019161066d565b820191906000526020600020905b81548152906001019060200180831161065057829003601f168201915b50505050508152602001600182018054600181600116156101000203166002900480601f01602080910402602001604051908101604052809291908181526020018280546001816001161561010002031660029004801561070f5780601f106106e45761010080835404028352916020019161070f565b820191906000526020600020905b8154815290600101906020018083116106f257829003601f168201915b5050505050815260200160028201805480602002602001604051908101604052809291908181526020016000905b82821015610825578382906000526020600020906003020160405180606001604052908160008201548152602001600182018054600181600116156101000203166002900480601f0160208091040260200160405190810160405280929190818152602001828054600181600116156101000203166002900480156108035780601f106107d857610100808354040283529160200191610803565b820191906000526020600020905b8154815290600101906020018083116107e657829003601f168201915b505050505081526020016002820154815250508152602001906001019061073d565b50505050815250509050600182908060018154018082558091505090600182039060005260206000200160009091929091909150908051906020019061086c929190610991565b50505050565b600080600090505b83518110156108c357828051906020012084828151811061089757fe5b60200260200101518051906020012014156108b65760019150506108c9565b808060010191505061087a565b50600090505b92915050565b60405180606001604052806060815260200160608152602001606081525090565b60405180606001604052806000815260200160608152602001600081525090565b828054600181600116156101000203166002900490600052602060002090601f016020900481019282601f1061095257805160ff1916838001178555610980565b82800160010185558215610980579182015b8281111561097f578251825591602001919060010190610964565b5b50905061098d9190610a11565b5090565b828054600181600116156101000203166002900490600052602060002090601f016020900481019282601f106109d257805160ff1916838001178555610a00565b82800160010185558215610a00579182015b828111156109ff5782518255916020019190600101906109e4565b5b509050610a0d9190610a11565b5090565b610a3391905b80821115610a2f576000816000905550600101610a17565b5090565b90565b600081359050610a4581610ec3565b92915050565b600082601f830112610a5c57600080fd5b8135610a6f610a6a82610db9565b610d8c565b91508082526020830160208301858383011115610a8b57600080fd5b610a96838284610e70565b50505092915050565b600081359050610aae81610eda565b92915050565b600060208284031215610ac657600080fd5b600082013567ffffffffffffffff811115610ae057600080fd5b610aec84828501610a4b565b91505092915050565b60008060408385031215610b0857600080fd5b600083013567ffffffffffffffff811115610b2257600080fd5b610b2e85828601610a4b565b925050602083013567ffffffffffffffff811115610b4b57600080fd5b610b5785828601610a4b565b9150509250929050565b600080600060608486031215610b7657600080fd5b600084013567ffffffffffffffff811115610b9057600080fd5b610b9c86828701610a4b565b9350506020610bad86828701610a9f565b9250506040610bbe86828701610a36565b9150509250925092565b6000610bd48383610cd9565b905092915050565b6000610be782610df5565b610bf18185610e23565b935083602082028501610c0385610de5565b8060005b85811015610c3f5784840389528151610c208582610bc8565b9450610c2b83610e16565b925060208a01995050600181019050610c07565b50829750879550505050505092915050565b610c5a81610e50565b82525050565b610c6981610e5c565b82525050565b6000610c7a82610e0b565b610c848185610e45565b9350610c94818560208601610e7f565b80840191505092915050565b6000610cab82610e00565b610cb58185610e34565b9350610cc5818560208601610e7f565b610cce81610eb2565b840191505092915050565b6000606083016000830151610cf16000860182610d29565b5060208301518482036020860152610d098282610ca0565b9150506040830151610d1e6040860182610c60565b508091505092915050565b610d3281610e66565b82525050565b6000610d448284610c6f565b915081905092915050565b60006020820190508181036000830152610d698184610bdc565b905092915050565b6000602082019050610d866000830184610c51565b92915050565b6000604051905081810181811067ffffffffffffffff82111715610daf57600080fd5b8060405250919050565b600067ffffffffffffffff821115610dd057600080fd5b601f19601f8301169050602081019050919050565b6000819050602082019050919050565b600081519050919050565b600081519050919050565b600081519050919050565b6000602082019050919050565b600082825260208201905092915050565b600082825260208201905092915050565b600081905092915050565b60008115159050919050565b6000819050919050565b6000819050919050565b82818337600083830152505050565b60005b83811015610e9d578082015181840152602081019050610e82565b83811115610eac576000848401525b50505050565b6000601f19601f8301169050919050565b610ecc81610e5c565b8114610ed757600080fd5b50565b610ee381610e66565b8114610eee57600080fd5b5056fea365627a7a72315820dbaef65d013f85e302e3f801316bd07c5e170167a4de9efed0e4cabe8d925ab36c6578706572696d656e74616cf564736f6c63430005100040",
  "source": "// SPDX-License-Identifier: MIT\npragma experimental ABIEncoderV2;\npragma solidity >=0.4.21 <8.10.0;\n\ncontract MemoryStorage {\n  struct MemoryData {\n    uint256 ID;\n    string text;\n    int256 status;\n  }\n\n  struct User {\n    string walletID;\n    string chainID;\n    MemoryData[] memories;\n  }\n\n  mapping(string => User) users;\n  string[] userIds;\n\n  function indexOf(string[] memory arr, string memory searchFor) private pure returns (bool) {\n    for (uint256 i = 0; i < arr.length; i++) {\n      if (keccak256(bytes(arr[i])) == keccak256(bytes(searchFor))) {\n        return true;\n      }\n    }\n    return false;\n  }\n\n  function setUser(string memory _walletID) public{\n    User memory newUser = users[_walletID];\n    userIds.push(_walletID);\n  }\n\n  function hasUser(string memory _walletID) public view returns(bool){\n    return indexOf(userIds, _walletID);\n  }\n\n  function changeMemoryStatus(string memory _walletID, uint256 memoryIndex, int256 _status) public {\n    User storage _user = users[_walletID];\n    _user.memories[memoryIndex].status = _status;\n  }\n\n  function addMemory(string memory _walletID, string memory _memory) public {\n    User storage _user = users[_walletID];\n    MemoryData memory newMemory = MemoryData({ID: _user.memories.length, text: _memory, status: 0});\n    _user.memories.push(newMemory);\n  }\n\n  function getMemoryList(string memory _walletID) public view returns (MemoryData[] memory) {\n    User memory _user = users[_walletID];\n    return _user.memories;\n  }\n}\n",
  "sourcePath": "/Users/berkayaksu/Desktop/MemoryChain/contracts/MemoryStorage.sol",
  "compiler": {
    "name": "solc",
    "version": "0.5.16+commit.9c3226ce.Emscripten.clang"
  },
  "schemaVersion": "3.4.6",
  "updatedAt": "2022-07-26T07:08:05.962Z",
  "networkType": "ethereum",
  "devdoc": {
    "methods": {}
  },
  "userdoc": {
    "methods": {}
  }
}