{
  "contractName": "MemoryStorage",
  "abi": [
    {
      "constant": false,
      "inputs": [
        {
          "internalType": "string",
          "name": "_walletID",
          "type": "string"
        }
      ],
      "name": "setUser",
      "outputs": [],
      "payable": false,
      "stateMutability": "nonpayable",
      "type": "function"
    },
    {
      "constant": true,
      "inputs": [
        {
          "internalType": "string",
          "name": "_walletID",
          "type": "string"
        }
      ],
      "name": "hasUser",
      "outputs": [
        {
          "internalType": "bool",
          "name": "",
          "type": "bool"
        }
      ],
      "payable": false,
      "stateMutability": "view",
      "type": "function"
    },
    {
      "constant": false,
      "inputs": [
        {
          "internalType": "string",
          "name": "_walletID",
          "type": "string"
        },
        {
          "internalType": "string",
          "name": "_friendID",
          "type": "string"
        },
        {
          "internalType": "string",
          "name": "_memory",
          "type": "string"
        }
      ],
      "name": "addMemory",
      "outputs": [],
      "payable": false,
      "stateMutability": "nonpayable",
      "type": "function"
    },
    {
      "constant": true,
      "inputs": [
        {
          "internalType": "string",
          "name": "_walletID",
          "type": "string"
        }
      ],
      "name": "getMemoryList",
      "outputs": [
        {
          "components": [
            {
              "internalType": "string",
              "name": "text",
              "type": "string"
            },
            {
              "internalType": "string",
              "name": "friendID",
              "type": "string"
            }
          ],
          "internalType": "struct MemoryStorage.MemoryData[]",
          "name": "",
          "type": "tuple[]"
        }
      ],
      "payable": false,
      "stateMutability": "view",
      "type": "function"
    }
  ],
  "bytecode": "0x608060405234801561001057600080fd5b506110c7806100206000396000f3fe608060405234801561001057600080fd5b506004361061004c5760003560e01c8063459c590814610051578063b50c385314610081578063d0020fad146100b1578063e0003ece146100cd575b600080fd5b61006b60048036036100669190810190610cef565b6100e9565b6040516100789190610f24565b60405180910390f35b61009b60048036036100969190810190610cef565b610459565b6040516100a89190610f46565b60405180910390f35b6100cb60048036036100c69190810190610cef565b61054d565b005b6100e760048036036100e29190810190610d30565b6108f1565b005b60606100f3610b3b565b6000836040516101039190610f0d565b9081526020016040518091039020604051806060016040529081600082018054600181600116156101000203166002900480601f0160208091040260200160405190810160405280929190818152602001828054600181600116156101000203166002900480156101b55780601f1061018a576101008083540402835291602001916101b5565b820191906000526020600020905b81548152906001019060200180831161019857829003601f168201915b5050505050815260200160018201805480602002602001604051908101604052809291908181526020016000905b8282101561029f578382906000526020600020018054600181600116156101000203166002900480601f01602080910402602001604051908101604052809291908181526020018280546001816001161561010002031660029004801561028b5780601f106102605761010080835404028352916020019161028b565b820191906000526020600020905b81548152906001019060200180831161026e57829003601f168201915b5050505050815260200190600101906101e3565b50505050815260200160028201805480602002602001604051908101604052809291908181526020016000905b828210156104425783829060005260206000209060020201604051806040016040529081600082018054600181600116156101000203166002900480601f0160208091040260200160405190810160405280929190818152602001828054600181600116156101000203166002900480156103885780601f1061035d57610100808354040283529160200191610388565b820191906000526020600020905b81548152906001019060200180831161036b57829003601f168201915b50505050508152602001600182018054600181600116156101000203166002900480601f01602080910402602001604051908101604052809291908181526020018280546001816001161561010002031660029004801561042a5780601f106103ff5761010080835404028352916020019161042a565b820191906000526020600020905b81548152906001019060200180831161040d57829003601f168201915b505050505081525050815260200190600101906102cc565b505050508152505090508060400151915050919050565b60006105466001805480602002602001604051908101604052809291908181526020016000905b8282101561053c578382906000526020600020018054600181600116156101000203166002900480601f0160208091040260200160405190810160405280929190818152602001828054600181600116156101000203166002900480156105285780601f106104fd57610100808354040283529160200191610528565b820191906000526020600020905b81548152906001019060200180831161050b57829003601f168201915b505050505081526020019060010190610480565b5050505083610ade565b9050919050565b610555610b3b565b6000826040516105659190610f0d565b9081526020016040518091039020604051806060016040529081600082018054600181600116156101000203166002900480601f0160208091040260200160405190810160405280929190818152602001828054600181600116156101000203166002900480156106175780601f106105ec57610100808354040283529160200191610617565b820191906000526020600020905b8154815290600101906020018083116105fa57829003601f168201915b5050505050815260200160018201805480602002602001604051908101604052809291908181526020016000905b82821015610701578382906000526020600020018054600181600116156101000203166002900480601f0160208091040260200160405190810160405280929190818152602001828054600181600116156101000203166002900480156106ed5780601f106106c2576101008083540402835291602001916106ed565b820191906000526020600020905b8154815290600101906020018083116106d057829003601f168201915b505050505081526020019060010190610645565b50505050815260200160028201805480602002602001604051908101604052809291908181526020016000905b828210156108a45783829060005260206000209060020201604051806040016040529081600082018054600181600116156101000203166002900480601f0160208091040260200160405190810160405280929190818152602001828054600181600116156101000203166002900480156107ea5780601f106107bf576101008083540402835291602001916107ea565b820191906000526020600020905b8154815290600101906020018083116107cd57829003601f168201915b50505050508152602001600182018054600181600116156101000203166002900480601f01602080910402602001604051908101604052809291908181526020018280546001816001161561010002031660029004801561088c5780601f106108615761010080835404028352916020019161088c565b820191906000526020600020905b81548152906001019060200180831161086f57829003601f168201915b5050505050815250508152602001906001019061072e565b5050505081525050905060018290806001815401808255809150509060018203906000526020600020016000909192909190915090805190602001906108eb929190610b5c565b50505050565b600080846040516109029190610f0d565b908152602001604051809103902090506000610a0182600101805480602002602001604051908101604052809291908181526020016000905b828210156109f7578382906000526020600020018054600181600116156101000203166002900480601f0160208091040260200160405190810160405280929190818152602001828054600181600116156101000203166002900480156109e35780601f106109b8576101008083540402835291602001916109e3565b820191906000526020600020905b8154815290600101906020018083116109c657829003601f168201915b50505050508152602001906001019061093b565b5050505085610ade565b905080610a4a5781600101849080600181540180825580915050906001820390600052602060002001600090919290919091509080519060200190610a47929190610b5c565b50505b610a52610bdc565b60405180604001604052808581526020018681525090508260020181908060018154018082558091505090600182039060005260206000209060020201600090919290919091506000820151816000019080519060200190610ab5929190610bf6565b506020820151816001019080519060200190610ad2929190610bf6565b50505050505050505050565b600080600090505b8351811015610b2f578280519060200120848281518110610b0357fe5b6020026020010151805190602001201415610b22576001915050610b35565b8080600101915050610ae6565b50600090505b92915050565b60405180606001604052806060815260200160608152602001606081525090565b828054600181600116156101000203166002900490600052602060002090601f016020900481019282601f10610b9d57805160ff1916838001178555610bcb565b82800160010185558215610bcb579182015b82811115610bca578251825591602001919060010190610baf565b5b509050610bd89190610c76565b5090565b604051806040016040528060608152602001606081525090565b828054600181600116156101000203166002900490600052602060002090601f016020900481019282601f10610c3757805160ff1916838001178555610c65565b82800160010185558215610c65579182015b82811115610c64578251825591602001919060010190610c49565b5b509050610c729190610c76565b5090565b610c9891905b80821115610c94576000816000905550600101610c7c565b5090565b90565b600082601f830112610cac57600080fd5b8135610cbf610cba82610f8e565b610f61565b91508082526020830160208301858383011115610cdb57600080fd5b610ce6838284611031565b50505092915050565b600060208284031215610d0157600080fd5b600082013567ffffffffffffffff811115610d1b57600080fd5b610d2784828501610c9b565b91505092915050565b600080600060608486031215610d4557600080fd5b600084013567ffffffffffffffff811115610d5f57600080fd5b610d6b86828701610c9b565b935050602084013567ffffffffffffffff811115610d8857600080fd5b610d9486828701610c9b565b925050604084013567ffffffffffffffff811115610db157600080fd5b610dbd86828701610c9b565b9150509250925092565b6000610dd38383610ec9565b905092915050565b6000610de682610fca565b610df08185610ff8565b935083602082028501610e0285610fba565b8060005b85811015610e3e5784840389528151610e1f8582610dc7565b9450610e2a83610feb565b925060208a01995050600181019050610e06565b50829750879550505050505092915050565b610e5981611025565b82525050565b6000610e6a82610fe0565b610e74818561101a565b9350610e84818560208601611040565b80840191505092915050565b6000610e9b82610fd5565b610ea58185611009565b9350610eb5818560208601611040565b610ebe81611073565b840191505092915050565b60006040830160008301518482036000860152610ee68282610e90565b91505060208301518482036020860152610f008282610e90565b9150508091505092915050565b6000610f198284610e5f565b915081905092915050565b60006020820190508181036000830152610f3e8184610ddb565b905092915050565b6000602082019050610f5b6000830184610e50565b92915050565b6000604051905081810181811067ffffffffffffffff82111715610f8457600080fd5b8060405250919050565b600067ffffffffffffffff821115610fa557600080fd5b601f19601f8301169050602081019050919050565b6000819050602082019050919050565b600081519050919050565b600081519050919050565b600081519050919050565b6000602082019050919050565b600082825260208201905092915050565b600082825260208201905092915050565b600081905092915050565b60008115159050919050565b82818337600083830152505050565b60005b8381101561105e578082015181840152602081019050611043565b8381111561106d576000848401525b50505050565b6000601f19601f830116905091905056fea365627a7a7231582028bbd69a587f8ba886d3bd77df16279d505058b2b695f8130c0703f4ec114e066c6578706572696d656e74616cf564736f6c63430005100040",
  "source": "// SPDX-License-Identifier: MIT\npragma experimental ABIEncoderV2;\npragma solidity >=0.4.21 <8.10.0;\n\ncontract MemoryStorage {\n  struct MemoryData {\n    string text;\n    string friendID;\n  }\n\n  struct User {\n    string walletID;\n    string[] friends;\n    MemoryData[] memories;\n  }\n\n  mapping(string => User) users;\n  string[] userIds;\n\n  function indexOf(string[] memory arr, string memory searchFor) private pure returns (bool) {\n    for (uint256 i = 0; i < arr.length; i++) {\n      if (keccak256(bytes(arr[i])) == keccak256(bytes(searchFor))) {\n        return true;\n      }\n    }\n    return false;\n  }\n\n  function setUser(string memory _walletID) public{\n    User memory newUser = users[_walletID];\n    userIds.push(_walletID);\n  }\n\n  function hasUser(string memory _walletID) public view returns(bool){\n    return indexOf(userIds, _walletID);\n  }\n\n  function addMemory(string memory _walletID, string memory _friendID, string memory _memory) public {\n    User storage _user = users[_walletID];\n    bool hasFriend  = indexOf(_user.friends, _friendID);\n    if(!hasFriend){\n      _user.friends.push(_friendID);\n    }\n    MemoryData memory newMemory = MemoryData({text: _memory, friendID: _friendID});\n    _user.memories.push(newMemory);\n  }\n\n  function getMemoryList(string memory _walletID) public view returns (MemoryData[] memory) {\n    User memory _user = users[_walletID];\n    return _user.memories;\n  }\n}\n",
  "sourcePath": "/Users/trio/Desktop/MemoryChain/contracts/MemoryStorage.sol",
  "compiler": {
    "name": "solc",
    "version": "0.5.16+commit.9c3226ce.Emscripten.clang"
  },
  "schemaVersion": "3.4.7",
  "updatedAt": "2022-05-28T01:48:40.378Z",
  "networkType": "ethereum",
  "devdoc": {
    "methods": {}
  },
  "userdoc": {
    "methods": {}
  }
}