{
  "contractName": "MemoryStorage",
  "abi": [
    {
      "constant": false,
      "inputs": [
        {
          "internalType": "string",
          "name": "_walletID",
          "type": "string"
        }
      ],
      "name": "setUser",
      "outputs": [],
      "payable": false,
      "stateMutability": "nonpayable",
      "type": "function"
    },
    {
      "constant": true,
      "inputs": [
        {
          "internalType": "string",
          "name": "_walletID",
          "type": "string"
        }
      ],
      "name": "hasUser",
      "outputs": [
        {
          "internalType": "bool",
          "name": "",
          "type": "bool"
        }
      ],
      "payable": false,
      "stateMutability": "view",
      "type": "function"
    },
    {
      "constant": false,
      "inputs": [
        {
          "internalType": "string",
          "name": "_walletID",
          "type": "string"
        },
        {
          "internalType": "string",
          "name": "_memory",
          "type": "string"
        }
      ],
      "name": "addMemory",
      "outputs": [],
      "payable": false,
      "stateMutability": "nonpayable",
      "type": "function"
    },
    {
      "constant": true,
      "inputs": [
        {
          "internalType": "string",
          "name": "_walletID",
          "type": "string"
        }
      ],
      "name": "getMemoryList",
      "outputs": [
        {
          "components": [
            {
              "internalType": "uint256",
              "name": "ID",
              "type": "uint256"
            },
            {
              "internalType": "string",
              "name": "text",
              "type": "string"
            },
            {
              "internalType": "bool",
              "name": "isActive",
              "type": "bool"
            }
          ],
          "internalType": "struct MemoryStorage.MemoryData[]",
          "name": "",
          "type": "tuple[]"
        }
      ],
      "payable": false,
      "stateMutability": "view",
      "type": "function"
    }
  ],
  "bytecode": "0x608060405234801561001057600080fd5b50610e34806100206000396000f3fe608060405234801561001057600080fd5b506004361061004c5760003560e01c8063459c590814610051578063aff4061614610081578063b50c38531461009d578063d0020fad146100cd575b600080fd5b61006b60048036036100669190810190610a53565b6100e9565b6040516100789190610c87565b60405180910390f35b61009b60048036036100969190810190610a94565b610395565b005b6100b760048036036100b29190810190610a53565b610465565b6040516100c49190610ca9565b60405180910390f35b6100e760048036036100e29190810190610a53565b610559565b005b60606100f3610896565b6000836040516101039190610c70565b9081526020016040518091039020604051806060016040529081600082018054600181600116156101000203166002900480601f0160208091040260200160405190810160405280929190818152602001828054600181600116156101000203166002900480156101b55780601f1061018a576101008083540402835291602001916101b5565b820191906000526020600020905b81548152906001019060200180831161019857829003601f168201915b50505050508152602001600182018054600181600116156101000203166002900480601f0160208091040260200160405190810160405280929190818152602001828054600181600116156101000203166002900480156102575780601f1061022c57610100808354040283529160200191610257565b820191906000526020600020905b81548152906001019060200180831161023a57829003601f168201915b5050505050815260200160028201805480602002602001604051908101604052809291908181526020016000905b8282101561037e578382906000526020600020906003020160405180606001604052908160008201548152602001600182018054600181600116156101000203166002900480601f01602080910402602001604051908101604052809291908181526020018280546001816001161561010002031660029004801561034b5780601f106103205761010080835404028352916020019161034b565b820191906000526020600020905b81548152906001019060200180831161032e57829003601f168201915b505050505081526020016002820160009054906101000a900460ff16151515158152505081526020019060010190610285565b505050508152505090508060400151915050919050565b600080836040516103a69190610c70565b908152602001604051809103902090506103be6108b7565b60405180606001604052808360020180549050815260200184815260200160001515815250905081600201819080600181540180825580915050906001820390600052602060002090600302016000909192909190915060008201518160000155602082015181600101908051906020019061043b9291906108da565b5060408201518160020160006101000a81548160ff02191690831515021790555050505050505050565b60006105526001805480602002602001604051908101604052809291908181526020016000905b82821015610548578382906000526020600020018054600181600116156101000203166002900480601f0160208091040260200160405190810160405280929190818152602001828054600181600116156101000203166002900480156105345780601f1061050957610100808354040283529160200191610534565b820191906000526020600020905b81548152906001019060200180831161051757829003601f168201915b50505050508152602001906001019061048c565b5050505083610839565b9050919050565b610561610896565b6000826040516105719190610c70565b9081526020016040518091039020604051806060016040529081600082018054600181600116156101000203166002900480601f0160208091040260200160405190810160405280929190818152602001828054600181600116156101000203166002900480156106235780601f106105f857610100808354040283529160200191610623565b820191906000526020600020905b81548152906001019060200180831161060657829003601f168201915b50505050508152602001600182018054600181600116156101000203166002900480601f0160208091040260200160405190810160405280929190818152602001828054600181600116156101000203166002900480156106c55780601f1061069a576101008083540402835291602001916106c5565b820191906000526020600020905b8154815290600101906020018083116106a857829003601f168201915b5050505050815260200160028201805480602002602001604051908101604052809291908181526020016000905b828210156107ec578382906000526020600020906003020160405180606001604052908160008201548152602001600182018054600181600116156101000203166002900480601f0160208091040260200160405190810160405280929190818152602001828054600181600116156101000203166002900480156107b95780601f1061078e576101008083540402835291602001916107b9565b820191906000526020600020905b81548152906001019060200180831161079c57829003601f168201915b505050505081526020016002820160009054906101000a900460ff161515151581525050815260200190600101906106f3565b50505050815250509050600182908060018154018082558091505090600182039060005260206000200160009091929091909150908051906020019061083392919061095a565b50505050565b600080600090505b835181101561088a57828051906020012084828151811061085e57fe5b602002602001015180519060200120141561087d576001915050610890565b8080600101915050610841565b50600090505b92915050565b60405180606001604052806060815260200160608152602001606081525090565b604051806060016040528060008152602001606081526020016000151581525090565b828054600181600116156101000203166002900490600052602060002090601f016020900481019282601f1061091b57805160ff1916838001178555610949565b82800160010185558215610949579182015b8281111561094857825182559160200191906001019061092d565b5b50905061095691906109da565b5090565b828054600181600116156101000203166002900490600052602060002090601f016020900481019282601f1061099b57805160ff19168380011785556109c9565b828001600101855582156109c9579182015b828111156109c85782518255916020019190600101906109ad565b5b5090506109d691906109da565b5090565b6109fc91905b808211156109f85760008160009055506001016109e0565b5090565b90565b600082601f830112610a1057600080fd5b8135610a23610a1e82610cf1565b610cc4565b91508082526020830160208301858383011115610a3f57600080fd5b610a4a838284610d9e565b50505092915050565b600060208284031215610a6557600080fd5b600082013567ffffffffffffffff811115610a7f57600080fd5b610a8b848285016109ff565b91505092915050565b60008060408385031215610aa757600080fd5b600083013567ffffffffffffffff811115610ac157600080fd5b610acd858286016109ff565b925050602083013567ffffffffffffffff811115610aea57600080fd5b610af6858286016109ff565b9150509250929050565b6000610b0c8383610c11565b905092915050565b6000610b1f82610d2d565b610b298185610d5b565b935083602082028501610b3b85610d1d565b8060005b85811015610b775784840389528151610b588582610b00565b9450610b6383610d4e565b925060208a01995050600181019050610b3f565b50829750879550505050505092915050565b610b9281610d88565b82525050565b610ba181610d88565b82525050565b6000610bb282610d43565b610bbc8185610d7d565b9350610bcc818560208601610dad565b80840191505092915050565b6000610be382610d38565b610bed8185610d6c565b9350610bfd818560208601610dad565b610c0681610de0565b840191505092915050565b6000606083016000830151610c296000860182610c61565b5060208301518482036020860152610c418282610bd8565b9150506040830151610c566040860182610b89565b508091505092915050565b610c6a81610d94565b82525050565b6000610c7c8284610ba7565b915081905092915050565b60006020820190508181036000830152610ca18184610b14565b905092915050565b6000602082019050610cbe6000830184610b98565b92915050565b6000604051905081810181811067ffffffffffffffff82111715610ce757600080fd5b8060405250919050565b600067ffffffffffffffff821115610d0857600080fd5b601f19601f8301169050602081019050919050565b6000819050602082019050919050565b600081519050919050565b600081519050919050565b600081519050919050565b6000602082019050919050565b600082825260208201905092915050565b600082825260208201905092915050565b600081905092915050565b60008115159050919050565b6000819050919050565b82818337600083830152505050565b60005b83811015610dcb578082015181840152602081019050610db0565b83811115610dda576000848401525b50505050565b6000601f19601f830116905091905056fea365627a7a72315820e3241c661251b76859583cd7457b8d009193a4978d35d00e353c1468736e6f956c6578706572696d656e74616cf564736f6c63430005100040",
  "source": "// SPDX-License-Identifier: MIT\npragma experimental ABIEncoderV2;\npragma solidity >=0.4.21 <8.10.0;\n\ncontract MemoryStorage {\n  struct MemoryData {\n    uint256 ID;\n    string text;\n    bool isActive;\n  }\n\n  struct User {\n    string walletID;\n    string chainID;\n    MemoryData[] memories;\n  }\n\n  mapping(string => User) users;\n  string[] userIds;\n\n  function indexOf(string[] memory arr, string memory searchFor) private pure returns (bool) {\n    for (uint256 i = 0; i < arr.length; i++) {\n      if (keccak256(bytes(arr[i])) == keccak256(bytes(searchFor))) {\n        return true;\n      }\n    }\n    return false;\n  }\n\n  function setUser(string memory _walletID) public{\n    User memory newUser = users[_walletID];\n    userIds.push(_walletID);\n  }\n\n  function hasUser(string memory _walletID) public view returns(bool){\n    return indexOf(userIds, _walletID);\n  }\n\n  function addMemory(string memory _walletID, string memory _memory) public {\n    User storage _user = users[_walletID];\n    MemoryData memory newMemory = MemoryData({ID: _user.memories.length, text: _memory, isActive: false});\n    _user.memories.push(newMemory);\n  }\n\n  function getMemoryList(string memory _walletID) public view returns (MemoryData[] memory) {\n    User memory _user = users[_walletID];\n    return _user.memories;\n  }\n}\n",
  "sourcePath": "/Users/berkayaksu/Desktop/MemoryChain/contracts/MemoryStorage.sol",
  "compiler": {
    "name": "solc",
    "version": "0.5.16+commit.9c3226ce.Emscripten.clang"
  },
  "schemaVersion": "3.4.6",
  "updatedAt": "2022-06-02T11:51:24.949Z",
  "networkType": "ethereum",
  "devdoc": {
    "methods": {}
  },
  "userdoc": {
    "methods": {}
  }
}